:020000040800F2
:10000000300D002089010008C90F0008A709000869
:10001000350F0008190500088731000800000000AE
:10002000000000000000000000000000AB260008F7
:100030001D05000800000000B12200089D290008ED
:10004000A3010008A3010008A3010008A301000800
:10005000A3010008A3010008C5050008A3010008CA
:10006000F90500082D06000861060008A301000834
:10007000A3010008A3010008A3010008A3010008D0
:10008000A3010008A3010008A3010008A3010008C0
:10009000A3010008A3010008A3010008A3010008B0
:1000A000A3010008A3010008A3010008A3010008A0
:1000B000A3010008012A0008A3010008A301000809
:1000C000A3010008A3010008A3010008A301000880
:1000D000A3010008C52E0008E92E00080D2F000816
:1000E000A3010008A3010008A301000800F002F822
:1000F00000F03AF80AA090E8000C82448344AAF188
:100100000107DA4501D100F02FF8AFF2090EBAE885
:100110000F0013F0010F18BFFB1A43F0010318473B
:100120007C3F00009C3F0000103A24BF78C878C193
:10013000FAD8520724BF30C830C144BF04680C60ED
:10014000704700000023002400250026103A28BF35
:1001500078C1FBD8520728BF30C148BF0B60704739
:100160001FB51FBD10B510BD00F033F81146FFF7E5
:10017000F7FF03F015FB00F051F803B4FFF7F2FFAF
:1001800003BC03F03FF800000948804709480047D6
:10019000FEE7FEE7FEE7FEE7FEE7FEE7FEE7FEE737
:1001A000FEE7FEE704480549054A064B7047000094
:1001B000A1290008ED00000830070020300D0020C4
:1001C00030090020300900207047704770477047A1
:1001D0007047754600F028F8AE460500694653465C
:1001E00020F00700854618B020B5FFF7DBFFBDE81B
:1001F00020404FF000064FF000074FF000084FF08E
:10020000000B21F00701AC46ACE8C009ACE8C0091E
:10021000ACE8C009ACE8C0098D4670470446AFF3AE
:1002200000802046FFF7A9FF00487047CC06002059
:1002300021B1826842F00102826003E0826822F00C
:10024000010282607047000010B5044612488442E3
:1002500008D10121401502F069F80021601502F073
:1002600065F817E00D48844208D10121001502F01D
:100270005DF80021201502F059F80BE0084884428F
:1002800008D10121C80302F051F800214FF40040C9
:1002900002F04CF810BD000000240140002801408D
:1002A000003C0140014600208A6802F004020AB1C5
:1002B000012000E000207047014600208A6802F01B
:1002C00008020AB1012000E00020704730B5024664
:1002D0000020002350680F4C20400D790C6844EA40
:1002E00005242043506090680B4C2040D1E9025413
:1002F0002C434D7944EA450420439060D06A20F4B1
:1003000070000C7C641EE4B2234340EA0350D062C8
:1003100030BD0000FFFEF0FFFDF7F1FF816841F006
:10032000080181607047816841F004018160704775
:1003300000B587B001214FF4017001F0E7FF4FF4E1
:10034000004001F0B7FF8020ADF8040000208DF8D8
:10035000070001A9174800F046FA1748FFF774FF95
:10036000002002908DF80C008DF80D004FF46020F5
:1003700004900020059001208DF8180002A90E4875
:10038000FFF7A4FF01210C48FFF752FF0A48FFF7CF
:10039000C5FF00BF0848FFF78FFF0028FAD10648C5
:1003A000FFF7C1FF00BF0448FFF77CFF0028FAD128
:1003B00007B000BD000801400024014010B5E9B1BC
:1003C000134A1288521C92B2114B1A80114B124CD4
:1003D000247833F814309A4204DB00220C4B1A8044
:1003E0000D4A10700A4A1288032A03DA00220B4BC6
:1003F0001A600BE00122094B1A6007E00022044B4F
:100400001A80074B1A800122044B1A6010BD0000AD
:100410007A0000206A3E00087E0000209C81214274
:100420007C000020E1B1114A1288521C92B20F4B9D
:100430001A804B2A03DB00221A800D4A10700D4AE5
:100440000B4B1B7832F81320084B1B889A4203DDB4
:100450000122094B1A6008E00022074B1A6004E0F1
:100460000022024B1A80044B1A6070478000002063
:1004700082000020423E0008988121420020044969
:10048000087001200349087005200349087070476F
:100490006A0000206B00002033000020184800781C
:1004A000002826DD17480088401C80B215490880C6
:1004B0001549164A127831F81210884208DB0020DC
:1004C000104908800E480078401E0D49087015E05C
:1004D0000F480E49097830F811000A490988884206
:1004E00003DC00200B49086008E00120094908608E
:1004F00004E00020034908800649086070470000B6
:100500006B00002086000020863E00086A00002064
:10051000903E00089001214200BFFEE770472DE9A0
:10052000F04104460D4616460A2094FBF0F0C7B28F
:100530003B4632462946052002F066FF0A2094FB1E
:10054000F0F100FB1140C7B205F1180081B23B4643
:100550003246052002F058FFBDE8F08170B5044630
:100560000D46164604F14000C3B232462946052026
:1005700002F03AFF70BD2DE9F04104460D461646E3
:100580000A2094FBF0F0C7B23B46324629460520CC
:1005900002F03AFF0A2094FBF0F100FB1140C7B2D1
:1005A00005F1180081B23B463246052002F02CFFCF
:1005B00005F1300081B273233246052002F014FFAA
:1005C000BDE8F08110B50A2002F070FE0121084854
:1005D00000F0DCF9012807D10648006808B90120BD
:1005E00000E0002003490860012000F053F810BD2E
:1005F000000801409401234210B50A2002F056FE83
:100600000421084800F0C2F938B90748006808B961
:10061000012000E0002004490860042000F03AF8BE
:1006200010BD0000001801409481214210B50A203D
:1006300002F03CFE0821084800F0A8F938B9074844
:10064000006808B9012000E0002004490860082083
:1006500000F020F810BD0000001801409401234272
:1006600010B50A2002F022FE1021084800F08EF991
:1006700038B90748006808B9012000E000200449A3
:100680000860102000F006F810BD000000180140BE
:100690009481214201490860704700001404014020
:1006A0000848007820F00100401C06490870052029
:1006B00005490870002005490870012004490870A8
:1006C0007047000032000020330000206A00002044
:1006D0006B00002030B5044604254FF4302000F0B4
:1006E0006FF80546042D17D10C48006940F0020050
:1006F0000A49086108464461006940F04000086109
:100700004FF4302000F05CF805460448006941F6DB
:10071000FD71084001490861284630BD00200240B3
:1007200004200B49C96801F0010109B101200EE064
:100730000749C96801F0040109B1022007E0044932
:10074000C96801F0100109B1032000E004207047DE
:10075000002002400348006940F080000149086120
:10076000704700000020024070B504460D46042684
:10077000F00200F025F80646042E11D10948006960
:1007800040F00100074908612580F00200F018F8E8
:1007900006460448006941F6FE71084001490861B7
:1007A000304670BD002002400248034948600348BB
:1007B000486070472301674500200240AB89EFCDB8
:1007C00000B502460423FFF7ABFF034603E0FFF743
:1007D000A7FF0346521E012B01D1002AF7D102B90F
:1007E0000523184600BD2DE9F041024600250026EC
:1007F000002000230024002791F803C00CF00F050F
:1008000091F803C00CF0100CBCF1000F03D091F86C
:1008100002C04CEA050591F800C0BCF1000F31D0D0
:10082000146800202BE04FF0010C0CFA00F3B1F833
:1008300000C00CEA03069E4220D183004FF00F0C4B
:100840000CFA03F7BC4305FA03FC4CEA040491F8E4
:1008500003C0BCF1280F06D14FF0010C0CFA00FCCC
:10086000C2F814C00AE091F803C0BCF1480F05D1EA
:100870004FF0010C0CFA00FCC2F810C0401C082814
:10088000D1D31460B1F800C0BCF1FF0F34DD54685F
:1008900000202EE000F1080C4FF0010808FA0CF3DC
:1008A000B1F800C00CEA03069E4221D183004FF04C
:1008B0000F0C0CFA03F7BC4305FA03FC4CEA0404E2
:1008C00091F803C0BCF1280F05D100F1080C08FA1B
:1008D0000CF8C2F8148091F803C0BCF1480F07D19E
:1008E00000F1080C4FF0010808FA0CF8C2F810806B
:1008F000401C0828CED35460BDE8F081F0B50A460C
:10090000002300240021002500F00046B6F1004F2E
:1009100002D11D4EF16901E01B4E7168C0F3034521
:1009200083B200F44016B6F5401F08D121F0706183
:10093000154E766826F07066134F7E6012E000F464
:100940008016B6F5801F06D1032606FA05F4A143EA
:1009500041F0706106E0460D360103FA06F6B14338
:1009600041F0706122B1460D360103FA06F63143BB
:1009700000F00046B6F1004F02D1034EF16101E0F4
:10098000014E7160F0BD00000000014002460020F1
:1009900093680B400BB1012000E0002070474161DB
:1009A00070470161704700BFFEE70000E1B1114AE6
:1009B0001288521C92B20F4B1A80082A03DB0022C5
:1009C0001A800D4A10700D4A0B4B1B7832F8132019
:1009D000084B1B889A4203DD0122094B1A6008E08C
:1009E0000022074B1A6004E00022024B1A80044BDD
:1009F0001A6070477200002074000020303E00082A
:100A000080812142E1B1114A1288521C92B20F4BEF
:100A10001A80082A03DB00221A800D4A10700D4A42
:100A20000B4B1B7832F81320084B1B889A4203DDCE
:100A30000122094B1A6008E00022074B1A6004E00B
:100A40000022024B1A80044B1A6070477600002087
:100A500078000020303E0008A481214210B500201B
:100A60002649087001202649087026480078032886
:100A700003D024480078042809D1234800780028AE
:100A800033DD21480078401E1F4908702DE01D48C5
:100A90000078092803D01B4800780A2809D11A4891
:100AA0000078012821DD18480078401E164908709A
:100AB0001BE015480078012817DD13480078401E18
:100AC00011490870084600780A2804DC08460078B6
:100AD0000E49887006E00C4800780A21C1EB4000FE
:100AE0000A49887001200A4908700A4802880A48A1
:100AF000018805480078FFF712FD10BD6A0000204C
:100B00006B000020330000203E0000203600002053
:100B1000350000204C0000204A00002010B50020C5
:100B200026490870012026490870264800780328C5
:100B300003D024480078042809D1234800780828E5
:100B400033DA21480078401C1F4908702DE01D4809
:100B50000078092803D01B4800780A2809D11A48D0
:100B600000780F2821DA18480078401C16490870D0
:100B70001BE0154800780F2817DA13480078401C4E
:100B800011490870084600780A2804DC08460078F5
:100B90000E49887006E00C4800780A21C1EB40003D
:100BA0000A49887001200A4908700A4802880A48E0
:100BB000018805480078FFF7B2FC10BD6A000020EC
:100BC0006B000020330000203E0000203600002093
:100BD000350000204C0000204A00002008B501210B
:100BE0000D2001F093FB10208DF8030003208DF8F9
:100BF00002005020ADF8000069460E48FFF7F3FDF3
:100C000050210C48FFF7CBFE01210B48FFF776FE81
:100C100041F2FB20ADF8000069460848FFF7E3FD0C
:100C200041F27B210548FFF7BAFE80210348FFF718
:100C3000B8FE08BD0008014000023000000C014071
:100C400001460020024A10600248017000207047EF
:100C5000B08121429E000020F8B505460C460027D1
:100C6000002600BF554802F085FAC0B20646544837
:100C7000007800B1F8BD534800780A2807DD00204D
:100C80005049087050490870206050490870002091
:100C90004C4908702068202800DBEBE74A480078C0
:100CA00030B1012813D0022821D0032835D12DE0FE
:100CB00047480078864209D100202060012043493E
:100CC000087041480078401C3F49087029E04148BD
:100CD0000078864205D13C480078401C3A490870AB
:100CE00004E00020394908703749087019E03EB126
:100CF0003948067034480078401C3349087004E0D5
:100D0000002032490870304908700AE02068401C11
:100D100020602068401E2E5403E000202A490870FD
:100D200000BF00BF28480078032844D12A49097829
:100D3000206888423FDB2948007898B3244800782F
:100D40008DF80000234800788DF8010022480078D3
:100D50008DF8020020480078801E83B22A460321C5
:100D6000684603F005F807462068801E295C206865
:100D7000401E285C01EB0020B8420BD12068801E89
:100D800020600020104908701049087001200C49AB
:100D9000087010E000200C4908700C4908700849E0
:100DA000087008E0FFE7002007490870074908704D
:100DB00001200349087000BF5CE7000000440040C8
:100DC000A4000020A6000020A8000020A50000200C
:100DD0009C0000209D000020A90000209E00002013
:100DE000064909781E2908DC0549044A1278885406
:100DF00002490978491C014A11707047A700002078
:100E0000AC06002000200B4908700B4800780B4905
:100E1000084A1278885407480078401C0549087031
:100E2000074801780548034A127881540320014994
:100E300008707047A70000209C000020AC0600202E
:100E40009D00002070B50024002500BF00BF00BF3A
:100E5000224800780028FBD101202149086000BF0A
:100E600020480078F0B120480078401E1F49887063
:100E70001D4801781D4802F05FFF05461B491A4ACC
:100E800012788D5418480078401C174908702812B1
:100E90001649154A1278885413480078401C1249A4
:100EA000087004E010480078C01E104988700024C3
:100EB00007E00E48065D304602F026FF00BF601CCA
:100EC000C4B2094800788442F3DB00BF0020044923
:100ED000086000BF042002F0E9F970BDA500002001
:100EE000B08121429E000020A7000020AC06002017
:100EF00010B50E480078012816D100200B49087063
:100F00000B49087802F0E8FE0949487802F0E4FE4F
:100F10000749887802F0E0FE0549C87802F0DCFE57
:100F20000349087902F0D8FE10BD0000350000200A
:100F30003600002000BFFEE710B500200B49087006
:100F400001200B4908700B480078012804DD09488E
:100F50000078401E07490870074802880748018842
:100F600004480078FFF7FAFA10BD00006A0000207C
:100F70006B0000203F000020500000204E000020A9
:100F800010B500200B49087001200B4908700B4870
:100F90000078042804DA09480078401C07490870E2
:100FA000074802880748018804480078FFF7D6FA06
:100FB00010BD00006A0000206B0000203F000020F0
:100FC000500000204E000020704710B54FF4A06084
:100FD00000F03AF810BD000070B5002100230F2288
:100FE000C47804B3154C246804F4E064C4F5E064E8
:100FF000210AC1F10403CA40447804FA03F1847859
:101000001440214309010E4C0678A155047804F0E0
:101010001F050124AC4005786D11AD0005F1E025F8
:10102000C5F8004109E0047804F01F050124AC4034
:10103000044D0678761145F8264070BD0CED00E0B1
:1010400000E400E080E100E002490143024A11604F
:10105000704700000000FA050CED00E010B5BAB1D1
:101060000E4B1B885B1C9BB20C4C23804418A34284
:1010700002DB0023094C2380084B1B88834203DAE0
:101080000023074C236008E00123054C236004E0A3
:101090000023024C2380024C236010BD700000200E
:1010A0009801214210B50120574908604FF4E160D2
:1010B000564908800120564908705649087056481C
:1010C000007820F001005449087040F2571053494D
:1010D0000880A720524908804FF4BE70514908800B
:1010E00040F22110504908804FF4C3704F490880E6
:1010F00040F29B104E490880122002F0A9F94D4899
:1011000083884288012102F055F945480288434806
:1011100001883E48008802F009FB434802884148A4
:1011200001883B480078FFF7FAF9414802883F48B8
:10113000018838480078FFF711FA02F0DDF8212223
:1011400000213D4802F060FA202200213B4802F0D5
:101150005BFA222200213A4802F056FA312200219D
:10116000384802F051FA32220021374802F04CFA96
:1011700033220021354802F047FA34220021344856
:1011800002F042FA39220021324802F03DFA3A22B6
:101190000021314802F038FA28E002F0CDF92F485A
:1011A0000078092810D01C48007820F00100401C6D
:1011B000194908700846007820F0080008700846B1
:1011C000007820F02000087001F0E0FF124800785D
:1011D000C0F3001050B11048007820F010000E4904
:1011E000087001201E490870FFF782FE0A48007847
:1011F00000F001000028D0D000200349086002F070
:1012000089FA02F099F910BD948121423C00002036
:101210003E0000203F000020320000204600002059
:10122000480000204A0000204C0000204E00002012
:1012300050000020DA3D0008B5270008AD21000865
:101240007D0400087D2E0008352E00081D0B0008C7
:101250005D0A0008810F0008390F000833000020E4
:101260003500002010B50020574908604FF4E160B8
:10127000564908800120564908705649087056485A
:10128000007820F001005449087040F2571053498B
:101290000880A720524908804FF4BE705149088049
:1012A00040F22110504908804FF4C3704F49088024
:1012B00040F29B104E490880102002F0C9F84D48BA
:1012C00083884288012102F075F845480288434826
:1012D00001883E48008802F029FA434802884148C4
:1012E00001883B480078FFF71AF9414802883F48D7
:1012F000018838480078FFF731F901F0FDFF21221D
:1013000000213D4802F080F9202200213B4802F0F4
:101310007BF9222200213A4802F076F9312200219D
:10132000384802F071F932220021374802F06CF996
:1013300033220021354802F067F934220021344875
:1013400002F062F939220021324802F05DF93A22B6
:101350000021314802F058F928E002F0EDF82F485A
:1013600000780A2810D01C48007820F00100401CAA
:10137000194908700846007820F0080008700846EF
:10138000007820F02000087001F000FF124800787B
:10139000C0F3001050B11048007820F010000E4942
:1013A000087001201E490870FFF7A2FD0A48007866
:1013B00000F001000028D0D000200349086002F0AE
:1013C000A9F902F0B9F810BD948121423C00002037
:1013D0003E0000203F000020320000204600002098
:1013E000480000204A0000204C0000204E00002051
:1013F00050000020DA3D0008B5270008AD210008A4
:101400007D0400087D2E0008352E00081D0B000805
:101410005D0A0008810F0008390F00083300002022
:101420003500002010B50020824908704FF4E160BB
:101430008149088001208149087002208049487054
:101440007E48007888700020C8707E48007820F0C0
:1014500001007C49087040F257107B490880D32076
:101460007A4908804FF4BE70794908804FF4A7701C
:10147000784908800E2001F0EBFF77488388428886
:10148000012101F097FF714802886F4801886A487E
:10149000008802F04BF96F4802886D480188674860
:1014A0000078FFF73CF801F027FF212200216B486C
:1014B00002F0AAF820220021694802F0A5F82222B1
:1014C0000021684802F0A0F831220021664802F0AD
:1014D0009BF832220021654802F096F83322002161
:1014E000634802F091F834220021624802F08CF83F
:1014F00094E002F021F860480078022817D001201B
:101500004C4908704F48007820F00100401C4D49BC
:10151000087000204A49C8704A48007820F0080046
:10152000484908700846007820F02000087001F053
:101530002DFE44480078C0F3001050B141480078B7
:1015400020F010003F49087001203A490870FFF769
:10155000CFFC3C480078C0F3400000285ED03948FA
:10156000007820F002003749087044480078EE28DF
:1015700023D10020424908700720424908704248A0
:1015800083884288012101F015FF3348838842880F
:10159000012101F00FFF00202949C8702948007877
:1015A00020F00800274908700846007820F0200045
:1015B000087001201F49087030E030480078A028EA
:1015C00012D120480078C0F3C00068B11D480078EF
:1015D00020F0200020301B490870002028490870A6
:1015E00001202849087019E024480078A12815D165
:1015F00014480078C0F3C00080B112480078C0F3EE
:10160000401058B10F48007820F020000D490870B4
:1016100000201B49087001201A4908700948007809
:1016200000F0010000283FF464AF02F073F801F00D
:1016300083FF10BD350000203C0000203E0000204C
:101640003600002032000020460000204800002024
:101650004A0000204C000020DA3D0008B5270008B1
:10166000AD2100087D0400087D2E0008352E0008FD
:101670001D0B00085D0A00083300002061000020F7
:101680006A0000206B000020EE3D000810B500202D
:10169000824908704FF4E160814908800120814946
:1016A0000870814948707F48007888700020C870B1
:1016B0007E48007820F001007C49087040F2571005
:1016C0007B490880D3207B4908804FF4BE707A495B
:1016D00008804FF4A77079490880112001F0B8FE06
:1016E000774883884288012101F064FE71480288AE
:1016F0006F4801886A48008802F018F86F4802882D
:101700006D48018867480078FEF709FF01F0F4FD95
:10171000212200216B4801F077FF202200216A4836
:1017200001F072FF22220021684801F06DFF312292
:101730000021674801F068FF32220021654801F06E
:1017400063FF33220021644801F05EFF3422002150
:10175000624801F059FF94E001F0EEFE6048007825
:10176000072817D001204D4908705048007820F014
:101770000100401C4D49087000204B49C8704B487F
:10178000007820F00800494908700846007820F0E9
:101790002000087001F0FAFC44480078C0F3001003
:1017A00050B14248007820F01000404908700120F4
:1017B0003A490870FFF79CFB3C480078C0F34000B2
:1017C00000285ED03948007820F0020037490870C0
:1017D00044480078EE2823D10020434908700720B0
:1017E00042490870424883884288012101F0E2FDA5
:1017F000334883884288012101F0DCFD00202A491A
:10180000C8702A48007820F0080028490870084667
:10181000007820F02000087001202049087030E096
:1018200030480078A02812D120480078C0F3C000CA
:1018300068B11E48007820F0200020301B49087055
:1018400000202949087001202849087019E025481E
:101850000078A12815D115480078C0F3C00080B1E8
:1018600012480078C0F3401058B11048007820F0BA
:1018700020000E49087000201B49087001201B49F8
:1018800008700A48007800F0010000283FF464AFB7
:1018900001F040FF01F050FE10BD000035000020B7
:1018A0003C0000203E0000203600002032000020D6
:1018B00046000020480000204A0000204C00002084
:1018C000DA3D0008B5270008AD2100087D040008B6
:1018D0007D2E0008352E00081D0B00085D0A00084B
:1018E00033000020610000206A0000206B0000200F
:1018F000EE3D000810B50020824908704FF4E16009
:1019000081490880012081490870814948707F48D9
:10191000007888700020C8707E48007820F00100B0
:101920007C49087040F257107B490880D3207B49DE
:1019300008804FF4BE707A4908804FF4A770794947
:1019400008800C2001F084FD7748838842880121BB
:1019500001F030FD714802886F4801886A480088AC
:1019600001F0E4FE6F4802886D48018867480078FE
:10197000FEF7D5FD01F0C0FC212200216B4801F0EB
:1019800043FE202200216A4801F03EFE222200216F
:10199000684801F039FE31220021674801F034FE29
:1019A00032220021654801F02FFE332200216448D5
:1019B00001F02AFE34220021624801F025FE94E065
:1019C00001F0BAFD60480078012817D001204D4988
:1019D00008705048007820F00100401C4D49087004
:1019E00000204B49C8704B48007820F00800494956
:1019F00008700846007820F02000087001F0C6FB4F
:101A000044480078C0F3001050B14248007820F0FC
:101A100010004049087001203A490870FFF768FA41
:101A20003C480078C0F3400000285ED03948007878
:101A300020F002003749087044480078EE2823D18E
:101A400000204349087007204249087042488388B3
:101A50004288012101F0AEFC33488388428801218D
:101A600001F0A8FC00202A49C8702A48007820F01C
:101A70000800284908700846007820F02000087007
:101A800001202049087030E030480078A02812D1A9
:101A900020480078C0F3C00068B11E48007820F0EC
:101AA000200020301B4908700020294908700120BF
:101AB0002849087019E025480078A12815D1154853
:101AC0000078C0F3C00080B112480078C0F3401025
:101AD00058B11048007820F020000E49087000200E
:101AE0001B49087001201B4908700A48007800F063
:101AF000010000283FF464AF01F00CFE01F01CFD72
:101B000010BD0000350000203C0000203E000020F9
:101B1000360000203200002046000020480000204F
:101B20004A0000204C000020DA3D0008B5270008DC
:101B3000AD2100087D0400087D2E0008352E000828
:101B40001D0B00085D0A0008330000206100002022
:101B50006A0000206B000020EE3D000810B52A4806
:101B6000007820F0010028490870062001F062FC8E
:101B7000562340F249220221012001F035FC322394
:101B800040F249220821012001F02EFC2E2340F2D0
:101B900049220E21012001F027FC332340F2492283
:101BA0001421012001F020FC01F0A6FB41220021BC
:101BB000164801F029FD42220021154801F024FDBC
:101BC00045220021134801F01FFD11E001F0B4FC93
:101BD0000D480078C0F3001050B10B48007820F099
:101BE00010000949087001200B490870FFF780F9BF
:101BF0000548007800F001000028E7D001F08AFDD8
:101C000001F09AFC10BD0000320000201D390008D0
:101C100069390008153A00083500002010B52F4832
:101C2000007820F001002D4908700B2001F010FC15
:101C300001202B4908602B49C1F884012A4908601A
:101C400001F05AFB10220021284801F0DDFC12228D
:101C50000021274801F0D8FC11220021254801F07D
:101C6000D3FC13220021244801F0CEFC14220021D1
:101C7000224801F0C9FC16220021214801F0C4FCD1
:101C8000442200211F4801F0BFFC1CE001F054FC7D
:101C90001D480078052806D01048007820F0010083
:101CA000401C0E4908700D480078C0F3001050B178
:101CB0000A48007820F010000849087001201349F4
:101CC0000870FFF715F90548007800F001000028BA
:101CD000DCD001F01FFD01F02FFC10BD3200002010
:101CE000980121420080214280812142B5390008BB
:101CF000FD380008F5390008D5390008BD3800085E
:101D0000DD380008AD260008330000203500002033
:101D100010B500206C4908604FF4E1606B49088001
:101D200000206B49087005206A4908806A490880CC
:101D30006A48007820F001006849087071206849FD
:101D4000088040F21B206749088040F2292066493C
:101D500008807720654908804FF406706449088040
:101D60004FF4C470634908804FF4067062490880DC
:101D7000FF2062490880112001F06AFB60488388D7
:101D80004288012101F016FB564802885448018818
:101D90004E48008801F0CAFC544802885248018825
:101DA0004B480078FEF7BBFB524802885048018838
:101DB00048480088FEF7DFFB504802884E480188FB
:101DC00045480088FEF7D7FB01F096FA2122002152
:101DD0004C4801F019FC202200214B4801F014FC72
:101DE00022220021494801F00FFC312200214848FD
:101DF00001F00AFC32220021464801F005FC3322A2
:101E00000021454801F000FC34220021434801F044
:101E1000FBFB37220021424801F0F6FB382200216B
:101E2000404801F0F1FB352200213F4801F0ECFB76
:101E3000362200213D4801F0E7FB36E001F07CFB53
:101E40003B480078032810D02448007820F0010097
:101E5000401C224908700846007820F008000870ED
:101E60000846007820F02000087001F08FF91B4828
:101E70000078C0F3C00020B1012013490831086088
:101E800003E0002010490831086014480078C0F3CE
:101E9000001050B11148007820F010000F49087070
:101EA000012024490870FFF723F80C48007800F05F
:101EB00001000028C2D000200349086001F02AFC7C
:101EC00001F03AFB10BD0000848121423C0000205B
:101ED0003E0000204400002042000020320000208C
:101EE00046000020480000204A0000204C0000204E
:101EF000560000205800002052000020540000200E
:101F0000DA3D0008B5270008AD2100087D0400086F
:101F10007D2E0008352E00081D0B00085D0A000804
:101F20002D250008E52400082D290008E5280008D3
:101F3000330000203500002010B501206C490860F6
:101F40004FF4E1606B49088000206B490870052060
:101F50006A4908806A4908806A48007820F00100D0
:101F60006849087071206849088040F21B20674961
:101F7000088040F22920664908807720654908805A
:101F80004FF40670644908804FF4C47063490880B8
:101F90004FF4067062490880FF20624908800F20D4
:101FA00001F056FA604883884288012101F002FA64
:101FB00056480288544801884E48008801F0B6FB14
:101FC00054480288524801884B480078FEF7A7FA27
:101FD000524802885048018848480088FEF7CBFAEA
:101FE000504802884E48018845480088FEF7C3FAE9
:101FF00001F082F9212200214C4801F005FB20224A
:1020000000214B4801F000FB22220021494801F049
:10201000FBFA31220021484801F0F6FA3222002171
:10202000464801F0F1FA33220021454801F0ECFA6C
:1020300034220021434801F0E7FA372200214248C8
:1020400001F0E2FA38220021404801F0DDFA3522A1
:1020500000213F4801F0D8FA362200213D4801F026
:10206000D3FA36E001F068FA3B480078042810D033
:102070002448007820F00100401C224908700846DE
:10208000007820F0080008700846007820F0200052
:10209000087001F07BF81B480078C0F3C00020B145
:1020A000012013490831086003E00020104908317D
:1020B000086014480078C0F3001050B1114800784F
:1020C00020F010000F490870012024490870FEF725
:1020D0000FFF0C48007800F001000028C2D000205B
:1020E0000349086001F016FB01F026FA10BD00005C
:1020F000848121423C0000203E000020440000205A
:10210000420000203200002046000020480000204D
:102110004A0000204C0000205600002058000020FB
:102120005200002054000020DA3D0008B5270008C6
:10213000AD2100087D0400087D2E0008352E000822
:102140001D0B00085D0A00082D250008E524000885
:102150002D290008E5280008330000203500002064
:1021600010B5002001F066F90E48007820F001005B
:102170000C49087001F0C0F8432200210A4801F020
:1021800043FA04E001F0D8F90A2001F08FF805487D
:10219000007800F001000028F4D001F0BBFA01F053
:1021A000CBF910BD32000020A106000810B50220B6
:1021B00037490870032037490870374800780928E4
:1021C00003D0354800780A2817D13448007820F029
:1021D0000800324908700846007820F02000087096
:1021E0002F4883884288012101F0E4F82D48838834
:1021F0004288012101F0DEF848E0274800780328F2
:1022000003D025480078042817D12448007820F00E
:102210000800224908700846007820F02000087065
:102220001F4883884288012101F0C4F81D48838833
:102230004288012101F0BEF828E017480078012803
:1022400007D015480078022803D0134800780728E3
:102250001CD100201449C8701048007820F00800F4
:102260000E4908700846007820F020000870012010
:102270000E4908700A4883884288012101F09AF8C3
:10228000084883884288012101F094F810BD0000BD
:102290006A0000206B000020330000203200002084
:1022A000EE3D0008DA3D0008360000203500002031
:1022B0007047000001460020034A506820F4404067
:1022C00008435060704700000010024029B1064AE0
:1022D000D2690243044BDA6104E0034AD2698243C3
:1022E000014BDA61704700000010024029B1064A34
:1022F00012690243044B1A6104E0034A12698243E3
:10230000014B1A61704700000010024029B1064AD3
:1023100092690243044B9A6104E0034A9269824342
:10232000014B9A61704700000010024029B1064A33
:10233000D2680243044BDA6004E0034AD268824365
:10234000014BDA60704700000010024030B50021F8
:102350000022002400232D4D6D6805F00C0121B1F1
:10236000042905D0082923D105E0294D056022E084
:10237000274D05601FE0254D6D6805F47012234D53
:102380006D6805F48034022505EB92421CB9214D9D
:10239000554305600BE01D4D6D6805F400351DB11A
:1023A0001C4D5543056002E0194D5543056002E0A0
:1023B000174D056000BF00BF144D6D6805F0F001BA
:1023C0000909154D6B5C0568DD4045600F4D6D6872
:1023D00005F4E061090A104D6B5C4568DD408560DD
:1023E0000A4D6D6805F46051C90A0B4D6B5C456878
:1023F000DD40C560054D6D6805F44041890B074D12
:102400006B5CC568B5FBF3F5056130BD001002409B
:1024100000127A0000093D00140000202400002072
:1024200000212E4A1278062A52D2DFE802F0030B6E
:10243000172A323AAA2804D1284A1278521C274B6C
:102440001A7049E0012805D1244A1278521C234B06
:102450001A7002E00022214B1A703DE01F4A1278E8
:10246000521C1E4B1A70A02802D11D4A507007E062
:10247000A12802D11A4A507002E00022174B1A70AC
:102480002AE0174A9070154A1278521C134B1A70A2
:1024900022E0134AD070114A1278521C0F4B1A7066
:1024A0001AE00F4A5278AB320D4B9B781A440C4B12
:1024B000DB781A44D1B2814203D10122084B1A7051
:1024C00002E00022064B1A700022044B1A7003E04F
:1024D0000022024B1A7000BF00BF7047840000202A
:1024E0006600002010B500200B49087001200B4940
:1024F00008700B480088002804DD09480088401E49
:10250000074908800748028807480188044800886E
:10251000FEF731F810BD00006A0000206B000020BB
:1025200044000020580000205600002010B5002074
:102530000B49087001200B4908700B4800880A28D5
:1025400004DA09480088401C0749088007480288C7
:102550000748018804480088FEF70DF810BD000008
:102560006A0000206B00002044000020580000207A
:102570005600002030B503460C461546002207E001
:10258000184600F008F824F812009B1C501C82B278
:10259000AA42F5DB30BD0146088870472DE9F05F9F
:1025A00080468A461746B8F1006F02D3334880450B
:1025B00001D3BDE8F09FFEF7F7F8A8F1006B4FEAF2
:1025C0009B25CBF34809C9F50074A74200DC3C46C3
:1025D0004DE04FF0006101EB85208A142849FFF798
:1025E000C9FF00260BE009EB0600254931F8100071
:1025F0004FF6FF71884200D003E0701C86B2A642FD
:10260000F1DB00BFA6421BDA4FF0006101EB852031
:10261000FEF760F8002608E03AF8160006EB09011C
:10262000174A22F81100701C86B2A642F4DB4FF064
:10263000006101EB85208A14114900F023F804E0C1
:1026400022465146404600F01DF8A74200D10FE057
:102650006D1C4FF000090AEB440AA044381B87B2F6
:10266000B7F5007F02DD4FF4007400E03C46B0E7B0
:1026700000BFFEF76FF800BF9BE7000000000108F5
:10268000AC0000202DE9F04105460E461746002417
:1026900007E036F814102846FEF766F8AD1C601CFB
:1026A00084B2BC42F5DBBDE8F081704700200449EC
:1026B000087001200349087006200349087070471C
:1026C0006A0000206B0000203300002010B500F0ED
:1026D00001F810BD0CB5002001900090334800684F
:1026E00040F480303149086000BF3048006800F491
:1026F000003000900198401C0190009818B9019892
:10270000B0F5A06FF1D12948006800F4003010B195
:102710000120009001E0002000900098012843D1A2
:102720002348006840F0100021490860084600680E
:1027300020F0030008600846006840F002000860CE
:102740001A48406819494860084640684860084689
:10275000406840F4806048600846406820F47C107F
:1027600048600846406840F4E81048600846006841
:1027700040F08070086000BF0C48006800F00070F6
:102780000028F9D00948406820F003000749486054
:102790000846406840F00200486000BF03484068B7
:1027A00000F00C000828F9D10CBD00000010024018
:1027B0000020024010B501204149087041490870CD
:1027C00041480078092803D03F4800780A2821D1E1
:1027D0003E48007820F0080008303C490870084660
:1027E000007820F020002030087039488388428823
:1027F000012100F0DFFD374883884288012100F085
:10280000D9FD35480088002858D14FF4E16032499D
:10281000088053E02C480078032803D02A48007829
:10282000042820D12948007820F0080008302749E2
:1028300008700846007820F02000203008702448F6
:1028400083884288012100F0B5FD224883884288B0
:10285000012100F0AFFD2048008878BB4FF4E16013
:102860001D4908802AE018480078012807D016483A
:102870000078022803D01448007807281ED10120D0
:10288000164908701649C8701048007820F00800F2
:1028900008300E4908700E4883884288012100F0F4
:1028A00089FD0C4883884288012100F083FD0A4895
:1028B000008818B94FF4E1600749088010BD000096
:1028C0006A0000206B00002033000020320000204E
:1028D000D03D0008F83D00083C00002035000020F5
:1028E0003600002010B500200B49087001200B496C
:1028F00008700B480088002804DD09480088401E45
:10290000074908800748028807480188044800886A
:10291000FDF731FE10BD00006A0000206B000020B2
:1029200042000020540000205200002010B500207A
:102930000B49087001200B4908700B4800880A28D1
:1029400004DA09480088401C0749088007480288C3
:102950000748018804480088FDF70DFE10BD0000FF
:102960006A0000206B00002042000020540000207C
:1029700052000020042808D14FF0E021096941F0FD
:1029800004014FF0E022116107E04FF0E0210969F6
:1029900021F004014FF0E022116170477047000000
:1029A00010B51348006840F001001149086008465E
:1029B0004068104908400E494860084600680E49C2
:1029C00008400B4908600846006820F48020086031
:1029D0000846406820F4FE0048604FF41F008860FD
:1029E000FFF774FE4FF000600449086010BD00005E
:1029F000001002400000FFF8FFFFF6FE08ED00E0C7
:102A000010B50121524800F04CF900287ED0012178
:102A10004F4800F037F94F480078092803D04D4857
:102A200000780A2810D14C480078C0F3C0014B4808
:102A30000078FDF7C3FC48480078C0F3C00148485F
:102A40000078FDF7EFFC07E000210846FDF7B6FC33
:102A500000210846FDF7E6FC42480088401C80B291
:102A600040490880B0F5FA6F08DB002008803A483A
:102A7000007820F010001030374908703A4800887C
:102A8000401C80B2384908800A282CDB00200880CE
:102A90003148007820F0400040302F4908702D4820
:102AA0000078032808D108460078C0F3C0012C48FC
:102AB0000078FDF77BFF03E000210846FDF776FF75
:102AC00024480078042808D123480078C0F3C001C6
:102AD00023480078FDF796FF03E000210846FDF744
:102AE00091FFFDF7DBFC21480088401C80B21F49A4
:102AF000088042F21071884228DB164800780328CB
:102B000003D01448007804280CD100E01EE01248DD
:102B10000078C0F3C0021648018816480088FEF706
:102B20009DFA04E0002211461046FEF797FA0A4883
:102B30000078C0F3401048B100200C4908800648D6
:102B4000007820F00400001D0349087010BD00004B
:102B50000004004033000020320000203F0000202D
:102B60003E0000202E000020300000202C0000201D
:102B700044000020420000207FB505460C4601219C
:102B80000220FFF7A3FBADF80850ADF80440002089
:102B9000ADF80A00ADF8060001A90E4800F0F8F8FB
:102BA000012211460B4800F08DF81D208DF8000021
:102BB00002208DF8010003208DF8020001208DF81D
:102BC00003006846FEF708FA0121024800F05DF8AC
:102BD0007FBD00000004004030B589B005460C46BA
:102BE00001210420FFF772FB01210820FFF78EFB73
:102BF0004FF48070ADF8200018208DF823000320DA
:102C00008DF8220008A91748FDF7EDFDADF8185022
:102C1000ADF814400020ADF81A00ADF8160005A973
:102C2000114800F0B5F87020ADF804000120ADF8AF
:102C300006000020ADF80A000220ADF80C0001A942
:102C4000094800F049F80821074800F095F80121EB
:102C5000054800F00BF80121034800F016F809B010
:102C600030BD0000000C01400008004021B1028886
:102C700042F08002028004E002884FF67F731A401F
:102C800002807047CA430282704721B1028842F035
:102C90000102028004E002884FF6FE731A400280AF
:102CA000704730B50246002000230024158A05EA4B
:102CB0000103958905EA010413B10CB1012000E07C
:102CC000002030BD1AB183890B43838102E08389E0
:102CD0008B4383817047000070B5002400220023DD
:102CE000058C4FF6FF6635400584028C8388848B03
:102CF0004FF68F752C404FF6FC752C400D882C43F9
:102D00004FF6FF552A400D894FF6FF7606EA052556
:102D10002A434D8806EA05252A43154DA84202D0CC
:102D2000144DA8421DD14FF2FF752A404D894FF630
:102D3000FF7606EA05252A434FF6FF352A408D889F
:102D400006EA05252A434EF6FF752B404DF6FF7522
:102D50002B408D8906EA05152B43CD8906EA05151A
:102D60002B4383808483CD888587028470BD0000D7
:102D7000002C0140003401400A460021818B4FF6AF
:102D8000F7731940114381837047818770470000B2
:102D9000002202881D4B98420ED01D4B98420BD04A
:102DA000B0F1804F08D01B4B984205D01A4B984287
:102DB00002D01A4B984204D14FF68F731A404B88B9
:102DC0001A43174B984207D0164B984204D04FF63F
:102DD000FF431A40CB881A4302808B8883850B8877
:102DE00003850A4B98420BD0094B984208D00E4BF2
:102DF000984205D00D4B984202D00D4B984201D11C
:102E00000B7A03860123838270470000002C014067
:102E1000003401400004004000080040000C004065
:102E200000100040001400400040014000440140F8
:102E30000048014010B500200B49087001200B49E3
:102E400008700B4800883C2804DD094800883C389D
:102E50000749088007480288074801880448008815
:102E600000F064FC10BD00006A0000206B00002030
:102E70003C000020480000204600002010B5002043
:102E80000B49087001200B4908700B480088B0F509
:102E9000616F04DA084800883C3007490880074819
:102EA0000288074801880448008800F03FFC10BDF4
:102EB0006A0000206B0000203C0000204800002039
:102EC0004600002010B540F22551064800F097F862
:102ED00030B1044800F04EF9C4B2204600F096F933
:102EE00010BD00000038014010B540F225510448E3
:102EF00000F085F818B103490348FDF7ADFE10BD99
:102F000000440040A00000208C06002010B540F2D4
:102F10002551064800F073F830B1044800F02AF952
:102F2000C4B22046FFF77CFA10BD00000048004004
:102F300021B1828942F40052828104E082894DF6F7
:102F4000FF731A408281704710B5044620488442BE
:102F500009D101218803FFF7E9F900214FF48040EE
:102F6000FFF7E4F932E01B48844209D1012148040B
:102F7000FFF7BCF900214FF40030FFF7B7F925E067
:102F80001548844209D101218804FFF7AFF90021D7
:102F90004FF48020FFF7AAF918E01048844209D1C5
:102FA0000121C804FFF7A2F900214FF40020FFF728
:102FB0009DF90BE00A48844208D101210805FFF77A
:102FC00095F900214FF48010FFF790F910BD000033
:102FD000003801400044004000480040004C0040E0
:102FE0000050004002460020B1F5007F00D100BF34
:102FF00013880B400BB1012000E00020704770B532
:103000000246002400230025002040F66A16B14243
:1030100000D100BFC1F3421501F01F03012606FADB
:1030200003F3012D02D19689334006E0022D02D12F
:10303000168A334001E0968A33400C12012606FAC4
:1030400004F41688344013B10CB1012000E00020D4
:1030500070BDF0B50346002400260025002040F690
:103060006A17B94200D100BF1846C1F3421401F0FB
:103070001F06012707FA06F5012C01D10C3004E0E8
:10308000022C01D1103000E014301AB107682F4330
:10309000076002E00768AF430760F0BD2DE9F04725
:1030A00086B005460E460024A24600BFA146002772
:1030B000B08900B100BF2F462C8A4CF6FF70044047
:1030C000F08804432C82AC894EF6F3100440B0889B
:1030D00031890843718908430443AC81AC8A4FF6B7
:1030E000FF400440B0890443AC8201A8FFF72EF9E9
:1030F0001F48874202D1DDF810A001E0DDF80CA0E6
:10310000A88900F4004040B10AEBCA0000EB0A10A5
:1031100031684900B0FBF1F807E00AEBCA0000EBA8
:103120000A1031688900B0FBF1F86420B8FBF0F0B8
:1031300004012009642101FB1089A88900F40040E2
:1031400040B1322000EBC900B0FBF1F000F0070005
:10315000044308E0322000EB09106421B0FBF1F0D9
:1031600000F00F0004432C8106B0BDE8F08700009A
:103170000038014001468888C0F308007047C1F359
:1031800008028280704700BFFEE7000010B51748B4
:103190000078C0F3401040B314480078C0F38000BA
:1031A00018B31248007820F0040010490870104845
:1031B0000088002805DD0E480088401E0C49088064
:1031C0000BE002200B49087003200B4908704FF4F4
:1031D000E16007490880FEF7E9FF084802880848CF
:1031E00001880348008800F0A1FA10BD32000020D9
:1031F0003C0000206A0000206B00002048000020F6
:1032000046000020014600BF7047000013490978BE
:1032100039B9AA2820D111490978491C0F4A1170DF
:103220001AE00E49097802290ADA0C490978491E80
:103230000B4A505409490978491C084A11700BE09F
:103240000021064A1170552806D10649097821F057
:103250000201891C034A117070470000830000209E
:10326000610000203200002010B56FF00400FFF76D
:1032700081FB0A4800680A49B0FBF1F0094908706F
:103280000846007800EB4001C1EBC0104FF6FF711B
:1032900001EAC0000449088010BD000000000020C1
:1032A00000127A00280000202A0000200146114A5E
:1032B00012884A434FF0E0235A6100229A611A466D
:1032C000126942F001021A6100BF4FF0E02210695A
:1032D00000F001021AB100F48032002AF5D04FF05C
:1032E000E022126922F001024FF0E0231A6100226D
:1032F0009A6170472A000020002001490870704739
:103300008D0000202DE9F04782460C4615461E46EA
:10331000DDE90989089F00F0B3F9712000F0A6F9F2
:10332000504600F0A3F9201200F0A0F9E0B200F03E
:103330009DF9281200F09AF9E8B200F097F93012DE
:1033400000F094F9F0B200F091F9381200F08EF923
:10335000F8B200F08BF94FEA282000F087F908F066
:10336000FF0000F083F94FEA292000F07FF909F00F
:10337000FF0000F07BF900F07FF9BDE8F087000066
:103380002DE9FE4F04460D4616461F46DDE90D9A0F
:10339000DDF8308006498DE8000709782144C8B27D
:1033A0003B4632462946FFF7ADFFBDE8FE8F0000E1
:1033B0008C000020FEB504460F4615461E464FB150
:1033C00020898DE86100E388A28861882078FFF772
:1033D000D7FF08E020898DE86100E388A288618832
:1033E0002078FFF78FFFFEBDF8B505460E4617465D
:1033F0001C46002000908DF800406B463A4631464E
:10340000284600F031F8F8BDF8B505460E461746D7
:103410001C460A2C0DDA0020009004F13000C0B2E6
:103420008DF800006B463A463146284600F01CF8FD
:1034300000BFF8BD10B5044600F022F9702000F07E
:1034400015F9204600F012F900F016F910BD000041
:1034500010B50446034909782144C8B2FFF7EAFFD2
:1034600010BD00008C0000202DE9F04104460D46FF
:1034700016461F464FF0000800F002F9062C1CD239
:10348000DFE804F003070B0F1317532000F0EEF8EA
:1034900013E06E2000F0EAF80FE0542000F0E6F8A8
:1034A0000BE06F2000F0E2F807E0552000F0DEF8B6
:1034B00003E0982000F0DAF800BF00BF281200F007
:1034C000D5F8E8B200F0D2F8301200F0CFF8F0B240
:1034D00000F0CCF8052C1AD1242000F0C7F8812088
:1034E00000F0C4F8052000F0C1F81149098808125D
:1034F00000F0BCF80E49087800F0B8F80D490988CA
:10350000081200F0B3F80B49087800F0AFF807E0B4
:1035100017F8080000F0AAF808F1010000F0FF0811
:1035200017F808000028F3D100F0A6F8BDE8F081F4
:103530008E0000209000002010B500242D48007857
:10354000E0B100F083F8782853D1002029490870B1
:10355000294800782949097888424ADA28482649C2
:10356000097800EB01104068002842D02449224A23
:10357000127801EB0211486880473AE000F066F8E3
:10358000792836D101201B4908701E4880781D49D2
:10359000497800EB012084B20020174908700DE043
:1035A00017481549097800EB01108089A04200D125
:1035B0000AE011480078401C0F4908700E48007856
:1035C0000E4909788842EBDB00BF0B4800780B49B5
:1035D000097888420DDA0A480749097800EB01109A
:1035E000006830B10649044A127801EB02110868FC
:1035F000804710BD980000209A0000208D00002018
:10360000AC0400208C06002010B50E4B1B781E2B3E
:1036100016DA0D4B0B4C247803EB041318600A4B9D
:10362000084C247803EB04135960074B054C2478AD
:1036300003EB04139A81034B1B785B1C014C237032
:1036400010BD00008D000020AC040020054800786B
:1036500028B1002003490870034800787047FF2014
:10366000FCE70000A40000208C06002010B50446F2
:103670002046FDF7B5FB10BD10B5FDF7E3FB10BD0F
:1036800010B5FDF7BFFB10BD70B504460D460C48E4
:1036900004800C480580FFF7F3FF4020FFF7E6FFAA
:1036A0002012FFF7E3FFE0B2FFF7E0FF2812FFF779
:1036B000DDFFE8B2FFF7DAFFFFF7DEFF70BD0000C5
:1036C0008E0000209000002018B90021074A1170D8
:1036D0000AE0142803D11421044A117004E046289A
:1036E00002D14621014A1170704700008C00002071
:1036F00010B5FFF7C5FF3020FFF7B8FF0020FFF738
:10370000B5FF0020FFF7B2FF0020FFF7AFFFFFF784
:10371000B3FF10BD00BF04480078722803D00248F0
:1037200000787828F7D170478C0600207CB50446D5
:103730000D4616464FF4167094FBF0F03030C0B2D0
:103740008DF800003C2094FBF0F00A2190FBF1F290
:1037500001FB12003030C0B28DF801003A208DF824
:1037600002003C2094FBF0F100FB11400A2190FB89
:10377000F1F03030C0B28DF803000A2094FBF0F174
:1037800000FB11403030C0B28DF8040000208DF8ED
:1037900005006B46324629460520FFF765FE7CBDD5
:1037A0001CB5002001900090FDF718FAFDF70DFC04
:1037B000FFF75AFD4FF4165000F03AFA4FF4E1309B
:1037C00000F08CF94FF4E13000F0DCF900214FF407
:1037D000E150FFF701FA40F6B8313448FFF7D5FA67
:1037E00000F04EF9FFF784FF46216320FFF7C4F98C
:1037F000FCF79EFD05202E4908704FF6FF714FF42F
:103800007840FFF741FF4FF47A70FFF74FFD4FF418
:103810007A70FFF74BFD4FF4FA70FFF747FD012276
:1038200069462448FEF7A6FEBDF80000224908704C
:10383000012201A91F48801EFEF79CFEBDF804006E
:1038400018B10020FFF740FF02E01420FFF73CFF13
:103850002BE0174800780B2825D2DFE800F0240C75
:103860000F181B1E092106121500FEF779FC1BE03C
:10387000FEF774F918E0FEF73DF815E0FDF7D2FD0C
:1038800012E0FDF70FFC0FE0FDF7ECFC0CE0FEF79B
:103890003FFA09E0FEF750FB06E0FEF7BFF903E050
:1038A000FDF7F4FE00E000BF00BFD2E700080040D3
:1038B0003300002002F800084000002009200449DD
:1038C0000870002003490870012003490870704700
:1038D000330000206A0000206B0000200A20044909
:1038E00008700020034908700120034908707047E0
:1038F000330000206A0000206B00002002200449F1
:1039000008700020034908700120034908707047BF
:10391000330000206A0000206B00002008B57B20E7
:1039200000900C48007820F00100401C0949087004
:10393000052009490870002008490870012008493D
:1039400008700020FFF7C0FE012269460548FEF717
:1039500025FE08BD32000020330000206A00002050
:103960006B00002000F8000808B5002000900C480B
:10397000007820F00100401C094908700520094921
:1039800008700020084908700120084908701420B8
:10399000FFF79AFE012269460548FEF7FFFD08BDC4
:1039A00032000020330000206A0000206B0000205D
:1039B00000F800080120044908700020034908703D
:1039C0000120034908707047330000206A0000207E
:1039D0006B0000200420044908700020034908708F
:1039E0000120034908707047330000206A0000205E
:1039F0006B00002003200449087000200349087070
:103A00000120034908707047330000206A0000203D
:103A10006B00002008B500200090134908700120B9
:103A2000124908701248007808B9012000E000200F
:103A30000F490870084600780090012269460D4839
:103A4000FEF7ACFD0A48007830B10B488388428805
:103A50000021FFF7AFFC05E0084883884288002179
:103A6000FFF7A8FC08BD00006A0000206B000020E2
:103A70004000002002F80008023E0008E43D000873
:103A800010B5002413E0FFF7FBFD0020FFF7EEFD6B
:103A9000FFF7F2FD0520FFF709FCFFF7D7FD08B996
:103AA000FF2406E0C820FFF701FC601CC4B25A2CBA
:103AB000E9DB00BFFF2C0BD009E006480068C043DB
:103AC0000549C1F890014FF4FA70FFF7EFFBF4E7F6
:103AD00010BD0000900121420000214210B586B0C7
:103AE000044601210420FEF711FC01214804FEF7E1
:103AF000EDFB0420ADF8140018208DF8170005A97F
:103B00001E48FCF770FE0820ADF8140048208DF820
:103B1000170005A91948FCF766FE1948FFF714FAC3
:103B200026208DF8000003208DF801008DF802009A
:103B300001208DF803006846FDF74EFA019400203D
:103B4000ADF80800ADF80A00ADF80C00ADF81000B3
:103B50000C20ADF80E0001A90948FFF79FFA0122D9
:103B600040F225510648FFF774FA01210448FFF797
:103B7000DFF90120FDF764F806B010BD0008014030
:103B80000044004010B586B0044601210820FEF72D
:103B9000BDFB01218804FEF799FB4FF48060ADF86E
:103BA000140002208DF8160018208DF8170005A9C2
:103BB0001D48FCF718FE4FF40060ADF814004820D3
:103BC0008DF8170005A91848FCF70DFE1748FFF7F8
:103BD000BBF927208DF8000003208DF801008DF837
:103BE000020001208DF803006846FDF7F5F9019405
:103BF0000020ADF80800ADF80A00ADF80C00ADF8F3
:103C000010000C20ADF80E0001A90848FFF746FA95
:103C1000012240F225510548FFF71BFA0121034814
:103C2000FFF786F906B010BD000C014000480040C7
:103C300010B586B00446012144F20400FEF766FB8D
:103C40002348FFF781F94FF40070ADF8140003200A
:103C50008DF8160018208DF8170005A91D48FCF7EF
:103C6000C2FD4FF48060ADF8140048208DF81700B5
:103C700005A91848FCF7B7FD25208DF800000320A2
:103C80008DF8010002208DF8020001208DF803005C
:103C90006846FDF7A1F901940020ADF80800ADF8E1
:103CA0000A00ADF80C00ADF810000C20ADF80E00C5
:103CB00001A90748FFF7F2F9012240F22551044813
:103CC000FFF7C7F901210248FFF732F906B010BD2E
:103CD000003801400008014010B5044600BF8021B3
:103CE0000848FFF77FF90028F9D021460548FFF77B
:103CF00046FA00BF40210348FFF774F90028F9D0C5
:103D000010BD00000038014010B5044600BF8021FE
:103D10000848FFF767F90028F9D021460548FFF762
:103D20002EFA00BF40210348FFF75CF90028F9D0C4
:103D300010BD00000044004070B502460C46FF254F
:103D4000FF2309E012F8010B80EA03010648405CFA
:103D500080EA05030548455C2000A4F10106B4B2E1
:103D6000F0D143EA052070BD9A3E00089A3F000852
:103D7000F0B504460E461F46FF23FF2509E014F860
:103D8000010B80EA05011048405C80EA03050F48FA
:103D9000435C3000A6F1010C1FFA8CF6EFD109E06C
:103DA00012F8010B80EA05010748405C80EA030530
:103DB0000648435C3800A7F1010C1FFA8CF7EFD1DD
:103DC00045EA0320F0BD00009A3E00089A3F000833
:103DD00016007400DF01C1002C0216006C01E10125
:103DE000B8012D020100CA020A00050345000C00BB
:103DF0007400DF01C1002C020C006C01E101B8016C
:103E00002D020200CA020A0005034500FF0F7405D7
:103E10001005AC044804E4031C035402F201000042
:103E2000580271028A02A302BC02D502EE021B03F1
:103E30000000010002000300040005000500060068
:103E40000600000022002300240025002600270091
:103E5000280029002A002B002C002C002D002E0009
:103E60002E002F002F0030003000E803F4019001F5
:103E70002C01B4004A01BE0000001027561328058B
:103E8000500A500A56136E009A01E803F203C20B5F
:103E900064009001F401E803B80B00C1814001C047
:103EA000804101C0804100C1814001C0804100C10A
:103EB000814000C1814001C0804101C0804100C1FA
:103EC000814000C1814001C0804100C1814001C0EA
:103ED000804101C0804100C1814001C0804100C1DA
:103EE000814000C1814001C0804100C1814001C0CA
:103EF000804101C0804100C1814000C1814001C0BA
:103F0000804101C0804100C1814001C0804100C1A9
:103F1000814000C1814001C0804101C0804100C199
:103F2000814000C1814001C0804100C1814001C089
:103F3000804101C0804100C1814000C1814001C079
:103F4000804101C0804100C1814001C0804100C169
:103F5000814000C1814001C0804100C1814001C059
:103F6000804101C0804100C1814001C0804100C149
:103F7000814000C1814001C0804101C0804100C139
:103F8000814000C1814001C0804100C1814001C029
:103F9000804101C0804100C1814000C0C101C30314
:103FA00002C2C60607C705C5C404CC0C0DCD0FCF91
:103FB000CE0E0ACACB0BC90908C8D81819D91BDB01
:103FC000DA1A1EDEDF1FDD1D1CDC14D4D515D71751
:103FD00016D6D21213D311D1D010F03031F133F301
:103FE000F23236F6F737F53534F43CFCFD3DFF3F51
:103FF0003EFEFA3A3BFB39F9F83828E8E929EB2B81
:104000002AEAEE2E2FEF2DEDEC2CE42425E527E710
:10401000E62622E2E323E12120E0A06061A163A380
:10402000A26266A6A767A56564A46CACAD6DAF6F10
:104030006EAEAA6A6BAB69A9A86878B8B979BB7B80
:104040007ABABE7E7FBF7DBDBC7CB47475B577B7D0
:10405000B67672B2B373B17170B050909151935300
:10406000529296565797559594549C5C5D9D5F9FD0
:104070009E5E5A9A9B5B99595898884849894B8B00
:104080008A4A4E8E8F4F8D4D4C8C44848545874790
:10409000468682424383418180400000BC40000844
:1040A00000000020AC000000280100086841000862
:1040B000AC000020840C00004401000800A24A0467
:1040C00000000000000000000102030406070809C8
:1040D00000000000010203040102030406070809AE
:1040E00002040608000000000000000000000000BC
:1040F000000055010100AA000000000000000000BF
:1041000000000000000000000000000000000000AF
:10411000000000000000000000000000000000009F
:10412000000000000000000000000000000000008F
:10413000000000000000000000000000000000007F
:1041400000000000000000000000FFFF0000000071
:104150000000000000000000A16601000000000057
:08416000000000000000000057
:04000005080000ED02
:00000001FF
